{
  "contractName": "DailyMask",
  "abi": [
    {
      "inputs": [],
      "payable": false,
      "stateMutability": "nonpayable",
      "type": "constructor"
    },
    {
      "anonymous": false,
      "inputs": [],
      "name": "gotMask",
      "type": "event"
    },
    {
      "anonymous": false,
      "inputs": [],
      "name": "successfulRegistration",
      "type": "event"
    },
    {
      "constant": true,
      "inputs": [],
      "name": "memberCount",
      "outputs": [
        {
          "internalType": "uint256",
          "name": "",
          "type": "uint256"
        }
      ],
      "payable": false,
      "stateMutability": "view",
      "type": "function"
    },
    {
      "constant": true,
      "inputs": [
        {
          "internalType": "uint256",
          "name": "",
          "type": "uint256"
        }
      ],
      "name": "members",
      "outputs": [
        {
          "internalType": "uint256",
          "name": "id",
          "type": "uint256"
        },
        {
          "internalType": "string",
          "name": "name",
          "type": "string"
        },
        {
          "internalType": "address",
          "name": "memberAddress",
          "type": "address"
        },
        {
          "internalType": "bool",
          "name": "eligible",
          "type": "bool"
        }
      ],
      "payable": false,
      "stateMutability": "view",
      "type": "function"
    },
    {
      "constant": true,
      "inputs": [],
      "name": "moderator",
      "outputs": [
        {
          "internalType": "address",
          "name": "",
          "type": "address"
        }
      ],
      "payable": false,
      "stateMutability": "view",
      "type": "function"
    },
    {
      "constant": false,
      "inputs": [
        {
          "internalType": "string",
          "name": "name",
          "type": "string"
        },
        {
          "internalType": "address",
          "name": "newAddress",
          "type": "address"
        }
      ],
      "name": "register",
      "outputs": [],
      "payable": false,
      "stateMutability": "nonpayable",
      "type": "function"
    },
    {
      "constant": false,
      "inputs": [],
      "name": "resetEligibility",
      "outputs": [],
      "payable": false,
      "stateMutability": "nonpayable",
      "type": "function"
    },
    {
      "constant": false,
      "inputs": [],
      "name": "getMask",
      "outputs": [],
      "payable": false,
      "stateMutability": "nonpayable",
      "type": "function"
    },
    {
      "constant": false,
      "inputs": [
        {
          "internalType": "string",
          "name": "name",
          "type": "string"
        },
        {
          "internalType": "bool",
          "name": "eligible",
          "type": "bool"
        },
        {
          "internalType": "uint256",
          "name": "changeIndex",
          "type": "uint256"
        }
      ],
      "name": "changeMember",
      "outputs": [],
      "payable": false,
      "stateMutability": "nonpayable",
      "type": "function"
    }
  ],
  "bytecode": "0x6080604052600060025534801561001557600080fd5b50336000806101000a81548173ffffffffffffffffffffffffffffffffffffffff021916908373ffffffffffffffffffffffffffffffffffffffff160217905550610ab7806100656000396000f3fe608060405234801561001057600080fd5b506004361061007d5760003560e01c8063387439041161005b57806338743904146101855780635daf08ca146101cf57806388b63e30146102bb578063a14ed6e31461038c5761007d565b806311aee380146100825780631e59c529146100a057806323654c971461017b575b600080fd5b61008a610396565b6040518082815260200191505060405180910390f35b610179600480360360408110156100b657600080fd5b81019080803590602001906401000000008111156100d357600080fd5b8201836020820111156100e557600080fd5b8035906020019184600183028401116401000000008311171561010757600080fd5b91908080601f016020809104026020016040519081016040528093929190818152602001838380828437600081840152601f19601f820116905080830192505050505050509192919290803573ffffffffffffffffffffffffffffffffffffffff16906020019092919050505061039c565b005b61018361054a565b005b61018d6105fc565b604051808273ffffffffffffffffffffffffffffffffffffffff1673ffffffffffffffffffffffffffffffffffffffff16815260200191505060405180910390f35b6101fb600480360360208110156101e557600080fd5b8101908080359060200190929190505050610621565b60405180858152602001806020018473ffffffffffffffffffffffffffffffffffffffff1673ffffffffffffffffffffffffffffffffffffffff16815260200183151515158152602001828103825285818151815260200191508051906020019080838360005b8381101561027d578082015181840152602081019050610262565b50505050905090810190601f1680156102aa5780820380516001836020036101000a031916815260200191505b509550505050505060405180910390f35b61038a600480360360608110156102d157600080fd5b81019080803590602001906401000000008111156102ee57600080fd5b82018360208201111561030057600080fd5b8035906020019184600183028401116401000000008311171561032257600080fd5b91908080601f016020809104026020016040519081016040528093929190818152602001838380828437600081840152601f19601f82011690508083019250505050505050919291929080351515906020019092919080359060200190929190505050610723565b005b6103946107ea565b005b60025481565b6000809054906101000a900473ffffffffffffffffffffffffffffffffffffffff1673ffffffffffffffffffffffffffffffffffffffff163373ffffffffffffffffffffffffffffffffffffffff16146103f557600080fd5b600080610401836108a8565b91509150811561041057600080fd5b60016040518060800160405280600260008154809291906001019190505581526020018681526020018573ffffffffffffffffffffffffffffffffffffffff16815260200160001515815250908060018154018082558091505090600182039060005260206000209060030201600090919290919091506000820151816000015560208201518160010190805190602001906104ad92919061095d565b5060408201518160020160006101000a81548173ffffffffffffffffffffffffffffffffffffffff021916908373ffffffffffffffffffffffffffffffffffffffff16021790555060608201518160020160146101000a81548160ff0219169083151502179055505050507fbfb939dfb81e455bf7cfdd48baf208aece7ab107bf5e9dfd3d33f7a8a8a931d560405160405180910390a150505050565b6000809054906101000a900473ffffffffffffffffffffffffffffffffffffffff1673ffffffffffffffffffffffffffffffffffffffff163373ffffffffffffffffffffffffffffffffffffffff16146105a357600080fd5b60008090505b6001805490508110156105f95760018082815481106105c457fe5b906000526020600020906003020160020160146101000a81548160ff02191690831515021790555080806001019150506105a9565b50565b6000809054906101000a900473ffffffffffffffffffffffffffffffffffffffff1681565b6001818154811061062e57fe5b9060005260206000209060030201600091509050806000015490806001018054600181600116156101000203166002900480601f0160208091040260200160405190810160405280929190818152602001828054600181600116156101000203166002900480156106e05780601f106106b5576101008083540402835291602001916106e0565b820191906000526020600020905b8154815290600101906020018083116106c357829003601f168201915b5050505050908060020160009054906101000a900473ffffffffffffffffffffffffffffffffffffffff16908060020160149054906101000a900460ff16905084565b6000809054906101000a900473ffffffffffffffffffffffffffffffffffffffff1673ffffffffffffffffffffffffffffffffffffffff163373ffffffffffffffffffffffffffffffffffffffff161461077c57600080fd5b826001828154811061078a57fe5b906000526020600020906003020160010190805190602001906107ae9291906109dd565b5081600182815481106107bd57fe5b906000526020600020906003020160020160146101000a81548160ff021916908315150217905550505050565b6000806107f6336108a8565b915091508161080457600080fd5b600015156001828154811061081557fe5b906000526020600020906003020160020160149054906101000a900460ff161515141561084157600080fd5b60006001828154811061085057fe5b906000526020600020906003020160020160146101000a81548160ff0219169083151502179055507fa16eba5844c188a3a0bc00d7ee8b6c1fdf1d11cb91b95d5295ce93a19bc7562360405160405180910390a15050565b60008060008090505b60018054905081101561094a578373ffffffffffffffffffffffffffffffffffffffff16600182815481106108e257fe5b906000526020600020906003020160020160009054906101000a900473ffffffffffffffffffffffffffffffffffffffff1673ffffffffffffffffffffffffffffffffffffffff16141561093d576001819250925050610958565b80806001019150506108b1565b506000600180549050915091505b915091565b828054600181600116156101000203166002900490600052602060002090601f016020900481019282601f1061099e57805160ff19168380011785556109cc565b828001600101855582156109cc579182015b828111156109cb5782518255916020019190600101906109b0565b5b5090506109d99190610a5d565b5090565b828054600181600116156101000203166002900490600052602060002090601f016020900481019282601f10610a1e57805160ff1916838001178555610a4c565b82800160010185558215610a4c579182015b82811115610a4b578251825591602001919060010190610a30565b5b509050610a599190610a5d565b5090565b610a7f91905b80821115610a7b576000816000905550600101610a63565b5090565b9056fea265627a7a72315820d25562149b9159c30c8dccec2c2c0fa28441b3948aa4b9a34beaa35e30fa575364736f6c63430005100032",
  "source": "pragma solidity ^0.5.1;\r\n\r\ncontract DailyMask{\r\n    struct Member{\r\n        uint id;\r\n        string name;\r\n        address memberAddress;\r\n        bool eligible;\r\n    }\r\n    \r\n    address public moderator;\r\n    Member[] public members; \r\n    uint public memberCount = 0;\r\n    \r\n    modifier onlyModerator{\r\n        require(msg.sender == moderator);\r\n        _;\r\n    }\r\n    \r\n    event gotMask();\r\n    event successfulRegistration();\r\n    \r\n    constructor() public{\r\n        moderator = msg.sender;\r\n    }\r\n    \r\n    function register(string memory name, address newAddress) public onlyModerator {\r\n        (bool registered, uint id) = isRegistered(newAddress);\r\n        if (registered) {\r\n            revert();\r\n        }\r\n        members.push(Member(memberCount++, name, newAddress, false));\r\n        emit successfulRegistration();\r\n    }\r\n    \r\n    // moderator resets members' eligiblity each day \r\n    function resetEligibility() public onlyModerator{\r\n        for(uint i = 0; i < members.length; i++){\r\n            members[i].eligible = true;\r\n        }\r\n    }\r\n    \r\n    function getMask() public {\r\n        (bool registered, uint id) = isRegistered(msg.sender);\r\n        if(!registered){ \r\n            revert();\r\n        }\r\n        if(members[id].eligible == false) revert();        \r\n        \r\n        members[id].eligible = false;\r\n        emit gotMask();\r\n    }\r\n    \r\n    function changeMember(string memory name, bool eligible, uint changeIndex) public onlyModerator{\r\n        members[changeIndex].name = name;\r\n        members[changeIndex].eligible = eligible;\r\n    }\r\n    \r\n    function isRegistered(address newAddress) private view returns(bool, uint){\r\n        for (uint i = 0; i < members.length; i++){\r\n            if(members[i].memberAddress == newAddress)\r\n                return (true, i);\r\n        }\r\n        \r\n        return (false, members.length);\r\n    }\r\n}",
  "sourcePath": "C:/Users/User/OneDrive/Desktop/truffleWorkSpace/MaskCheck/contracts/DailyMask.sol",
  "compiler": {
    "name": "solc",
    "version": "0.5.16+commit.9c3226ce.Emscripten.clang"
  },
  "schemaVersion": "3.2.3",
  "updatedAt": "2020-08-22T08:22:24.177Z",
  "networkType": "ethereum",
  "devdoc": {
    "methods": {}
  },
  "userdoc": {
    "methods": {}
  }
}